:100000000A128A11FC2F00308A000408840A820731
:100010000034543456344B34203444344134203486
:0A0020003234303432343634003408
:100E8E0001300A128A1157270A128A110B30F40008
:100E9E006230F300F30B512FF40B512F00000800BA
:100EAE00F20083120313061072088800061506302E
:100EBE00F1003030F000F00B622FF10B622F0000CA
:100ECE008312031306110800F20083120313061493
:100EDE007208880006150630F1003030F000F00B75
:100EEE00762FF10B762F00008312031306110800E4
:100EFE008E2F730884000A128A1103200A128A1197
:100F0E000A128A116B270A128A110130F30773082D
:100F1E0084000A128A1103200A128A11003A031D54
:100F2E00992F9A2F802F08008316031386018801AC
:100F3E0083120313860188010A128A11CB270A1223
:100F4E008A110A128A1147270A128A1180300A1250
:100F5E008A1157270A128A110130F3000A128A11D8
:100F6E007F270A128A11CB30F700EC30F60084305E
:100F7E00F500F50BC02FF60BC02FF70BC02F00009E
:100F8E00AD2F0A128A1100283430F400F130F3002C
:100F9E00F30BCF2FF40BCF2FD42F38300A128A1128
:100FAE0057270A128A110C300A128A1157270A1271
:100FBE008A1106300A128A1157270A128A110F3027
:100FCE000A128A1157270A128A1101300A128A113F
:100FDE0057270A128A110B30F4006230F300F30B1C
:100FEE00F62FF40BF62F0000080083010A128A1167
:020FFE009B2F27
:02400E00FA3F77
:00000001FF
